{"abi":[{"type":"constructor","inputs":[],"stateMutability":"nonpayable"},{"type":"receive","stateMutability":"payable"},{"type":"function","name":"owner","inputs":[],"outputs":[{"name":"","type":"address","internalType":"address"}],"stateMutability":"view"},{"type":"function","name":"transferEth","inputs":[{"name":"recipient","type":"address","internalType":"address payable"},{"name":"amount","type":"uint256","internalType":"uint256"}],"outputs":[],"stateMutability":"nonpayable"},{"type":"error","name":"FailedTransfer","inputs":[]},{"type":"error","name":"InsuffientBalance","inputs":[]},{"type":"error","name":"NotAuthorized","inputs":[]}],"bytecode":{"object":"0x6080604052348015600e575f5ffd5b50335f5f6101000a81548173ffffffffffffffffffffffffffffffffffffffff021916908373ffffffffffffffffffffffffffffffffffffffff16021790555061038f8061005b5f395ff3fe60806040526004361061002c575f3560e01c80638da5cb5b14610037578063e9bb84c21461006157610033565b3661003357005b5f5ffd5b348015610042575f5ffd5b5061004b610089565b604051610058919061024f565b60405180910390f35b34801561006c575f5ffd5b50610087600480360381019061008291906102da565b6100ad565b005b5f5f9054906101000a900473ffffffffffffffffffffffffffffffffffffffff1681565b5f5f9054906101000a900473ffffffffffffffffffffffffffffffffffffffff1673ffffffffffffffffffffffffffffffffffffffff163373ffffffffffffffffffffffffffffffffffffffff1614610132576040517fea8e4eb500000000000000000000000000000000000000000000000000000000815260040160405180910390fd5b8047101561016c576040517fd865282a00000000000000000000000000000000000000000000000000000000815260040160405180910390fd5b5f8273ffffffffffffffffffffffffffffffffffffffff168260405161019190610345565b5f6040518083038185875af1925050503d805f81146101cb576040519150601f19603f3d011682016040523d82523d5f602084013e6101d0565b606091505b505090508061020b576040517fbfa871c500000000000000000000000000000000000000000000000000000000815260040160405180910390fd5b505050565b5f73ffffffffffffffffffffffffffffffffffffffff82169050919050565b5f61023982610210565b9050919050565b6102498161022f565b82525050565b5f6020820190506102625f830184610240565b92915050565b5f5ffd5b5f61027682610210565b9050919050565b6102868161026c565b8114610290575f5ffd5b50565b5f813590506102a18161027d565b92915050565b5f819050919050565b6102b9816102a7565b81146102c3575f5ffd5b50565b5f813590506102d4816102b0565b92915050565b5f5f604083850312156102f0576102ef610268565b5b5f6102fd85828601610293565b925050602061030e858286016102c6565b9150509250929050565b5f81905092915050565b50565b5f6103305f83610318565b915061033b82610322565b5f82019050919050565b5f61034f82610325565b915081905091905056fea2646970667358221220eafeb7d63c204381745a9f69fdc2c8e6bd2c3eb114a262bfbb4bbe4b62f519cb64736f6c634300081e0033","linkReferences":{}},"methodIdentifiers":{"owner()":"8da5cb5b","transferEth(address,uint256)":"e9bb84c2"},"id":19}