{"abi":[{"type":"constructor","inputs":[{"name":"initialBalance","type":"uint256","internalType":"uint256"}],"stateMutability":"nonpayable"},{"type":"function","name":"allowance","inputs":[{"name":"","type":"address","internalType":"address"},{"name":"","type":"address","internalType":"address"}],"outputs":[{"name":"","type":"uint256","internalType":"uint256"}],"stateMutability":"view"},{"type":"function","name":"approve","inputs":[{"name":"spender","type":"address","internalType":"address"},{"name":"amount","type":"uint256","internalType":"uint256"}],"outputs":[{"name":"","type":"bool","internalType":"bool"}],"stateMutability":"nonpayable"},{"type":"function","name":"balanceOf","inputs":[{"name":"","type":"address","internalType":"address"}],"outputs":[{"name":"","type":"uint256","internalType":"uint256"}],"stateMutability":"view"},{"type":"function","name":"transfer","inputs":[{"name":"to","type":"address","internalType":"address"},{"name":"amount","type":"uint256","internalType":"uint256"}],"outputs":[],"stateMutability":"nonpayable"},{"type":"event","name":"Approval","inputs":[{"name":"owner","type":"address","indexed":true,"internalType":"address"},{"name":"spender","type":"address","indexed":true,"internalType":"address"},{"name":"value","type":"uint256","indexed":false,"internalType":"uint256"}],"anonymous":false},{"type":"event","name":"Transfer","inputs":[{"name":"from","type":"address","indexed":true,"internalType":"address"},{"name":"to","type":"address","indexed":true,"internalType":"address"},{"name":"value","type":"uint256","indexed":false,"internalType":"uint256"}],"anonymous":false}],"bytecode":{"object":"0x6080604052348015600e575f5ffd5b506040516107e73803806107e78339818101604052810190602e919060a7565b8060015f3373ffffffffffffffffffffffffffffffffffffffff1673ffffffffffffffffffffffffffffffffffffffff1681526020019081526020015f20819055505060cd565b5f5ffd5b5f819050919050565b6089816079565b81146092575f5ffd5b50565b5f8151905060a1816082565b92915050565b5f6020828403121560b95760b86075565b5b5f60c4848285016095565b91505092915050565b61070d806100da5f395ff3fe608060405234801561000f575f5ffd5b506004361061004a575f3560e01c8063095ea7b31461004e57806370a082311461007e578063a9059cbb146100ae578063dd62ed3e146100ca575b5f5ffd5b610068600480360381019061006391906104ca565b6100fa565b6040516100759190610522565b60405180910390f35b6100986004803603810190610093919061053b565b610276565b6040516100a59190610575565b60405180910390f35b6100c860048036038101906100c391906104ca565b61028b565b005b6100e460048036038101906100df919061058e565b61041a565b6040516100f19190610575565b60405180910390f35b5f5f821415801561018257505f5f5f3373ffffffffffffffffffffffffffffffffffffffff1673ffffffffffffffffffffffffffffffffffffffff1681526020019081526020015f205f8573ffffffffffffffffffffffffffffffffffffffff1673ffffffffffffffffffffffffffffffffffffffff1681526020019081526020015f205414155b1561018b575f5ffd5b815f5f3373ffffffffffffffffffffffffffffffffffffffff1673ffffffffffffffffffffffffffffffffffffffff1681526020019081526020015f205f8573ffffffffffffffffffffffffffffffffffffffff1673ffffffffffffffffffffffffffffffffffffffff1681526020019081526020015f20819055508273ffffffffffffffffffffffffffffffffffffffff163373ffffffffffffffffffffffffffffffffffffffff167f8c5be1e5ebec7d5bd14f71427d1e84f3dd0314c0f7b2291e5b200ac8c7c3b925846040516102649190610575565b60405180910390a36001905092915050565b6001602052805f5260405f205f915090505481565b60015f3373ffffffffffffffffffffffffffffffffffffffff1673ffffffffffffffffffffffffffffffffffffffff1681526020019081526020015f205481111561030b576040517f08c379a000000000000000000000000000000000000000000000000000000000815260040161030290610626565b60405180910390fd5b8060015f3373ffffffffffffffffffffffffffffffffffffffff1673ffffffffffffffffffffffffffffffffffffffff1681526020019081526020015f205f8282546103579190610671565b925050819055508060015f8473ffffffffffffffffffffffffffffffffffffffff1673ffffffffffffffffffffffffffffffffffffffff1681526020019081526020015f205f8282546103aa91906106a4565b925050819055508173ffffffffffffffffffffffffffffffffffffffff163373ffffffffffffffffffffffffffffffffffffffff167fddf252ad1be2c89b69c2b068fc378daa952ba7f163c4a11628f55a4df523b3ef8360405161040e9190610575565b60405180910390a35050565b5f602052815f5260405f20602052805f5260405f205f91509150505481565b5f5ffd5b5f73ffffffffffffffffffffffffffffffffffffffff82169050919050565b5f6104668261043d565b9050919050565b6104768161045c565b8114610480575f5ffd5b50565b5f813590506104918161046d565b92915050565b5f819050919050565b6104a981610497565b81146104b3575f5ffd5b50565b5f813590506104c4816104a0565b92915050565b5f5f604083850312156104e0576104df610439565b5b5f6104ed85828601610483565b92505060206104fe858286016104b6565b9150509250929050565b5f8115159050919050565b61051c81610508565b82525050565b5f6020820190506105355f830184610513565b92915050565b5f602082840312156105505761054f610439565b5b5f61055d84828501610483565b91505092915050565b61056f81610497565b82525050565b5f6020820190506105885f830184610566565b92915050565b5f5f604083850312156105a4576105a3610439565b5b5f6105b185828601610483565b92505060206105c285828601610483565b9150509250929050565b5f82825260208201905092915050565b7f555344544d6f636b3a207472616e73666572206661696c6564000000000000005f82015250565b5f6106106019836105cc565b915061061b826105dc565b602082019050919050565b5f6020820190508181035f83015261063d81610604565b9050919050565b7f4e487b71000000000000000000000000000000000000000000000000000000005f52601160045260245ffd5b5f61067b82610497565b915061068683610497565b925082820390508181111561069e5761069d610644565b5b92915050565b5f6106ae82610497565b91506106b983610497565b92508282019050808211156106d1576106d0610644565b5b9291505056fea2646970667358221220bd4ff1dcf42e59d6d5ff59911aebe077d8c52f3cecd711991f31c1282774bec664736f6c634300081e0033","linkReferences":{}},"methodIdentifiers":{"allowance(address,address)":"dd62ed3e","approve(address,uint256)":"095ea7b3","balanceOf(address)":"70a08231","transfer(address,uint256)":"a9059cbb"},"id":28}