{"abi":[{"type":"constructor","inputs":[{"name":"_admins","type":"address[]","internalType":"address[]"}],"stateMutability":"nonpayable"},{"type":"function","name":"admins","inputs":[{"name":"","type":"uint256","internalType":"uint256"}],"outputs":[{"name":"","type":"address","internalType":"address"}],"stateMutability":"view"},{"type":"function","name":"approvalCounts","inputs":[{"name":"","type":"bytes32","internalType":"bytes32"}],"outputs":[{"name":"","type":"uint256","internalType":"uint256"}],"stateMutability":"view"},{"type":"function","name":"approvals","inputs":[{"name":"","type":"bytes32","internalType":"bytes32"},{"name":"","type":"address","internalType":"address"}],"outputs":[{"name":"","type":"bool","internalType":"bool"}],"stateMutability":"view"},{"type":"function","name":"approve","inputs":[{"name":"action","type":"bytes","internalType":"bytes"}],"outputs":[],"stateMutability":"nonpayable"},{"type":"function","name":"execute","inputs":[{"name":"action","type":"bytes","internalType":"bytes"}],"outputs":[],"stateMutability":"nonpayable"},{"type":"function","name":"transferEth","inputs":[{"name":"recipient","type":"address","internalType":"address payable"},{"name":"amount","type":"uint256","internalType":"uint256"}],"outputs":[],"stateMutability":"nonpayable"},{"type":"event","name":"Approved","inputs":[{"name":"admin","type":"address","indexed":false,"internalType":"address"},{"name":"action","type":"bytes","indexed":false,"internalType":"bytes"}],"anonymous":false},{"type":"event","name":"Executed","inputs":[{"name":"admin","type":"address","indexed":false,"internalType":"address"},{"name":"action","type":"bytes","indexed":false,"internalType":"bytes"}],"anonymous":false},{"type":"error","name":"AlreadyApproved","inputs":[]},{"type":"error","name":"BadConfig","inputs":[]},{"type":"error","name":"FailedTransfer","inputs":[]},{"type":"error","name":"InsuffientBalance","inputs":[]},{"type":"error","name":"NotAuthorized","inputs":[]}],"bytecode":{"object":"0x608060405234801561000f575f5ffd5b506040516112e63803806112e683398181016040528101906100319190610457565b600381511461006c576040517f07cc321c00000000000000000000000000000000000000000000000000000000815260040160405180910390fd5b806001815181106100805761007f61049e565b5b602002602001015173ffffffffffffffffffffffffffffffffffffffff16815f815181106100b1576100b061049e565b5b602002602001015173ffffffffffffffffffffffffffffffffffffffff16148061013b5750806002815181106100ea576100e961049e565b5b602002602001015173ffffffffffffffffffffffffffffffffffffffff16815f8151811061011b5761011a61049e565b5b602002602001015173ffffffffffffffffffffffffffffffffffffffff16145b806101a75750806002815181106101555761015461049e565b5b602002602001015173ffffffffffffffffffffffffffffffffffffffff16816001815181106101875761018661049e565b5b602002602001015173ffffffffffffffffffffffffffffffffffffffff16145b156101de576040517f07cc321c00000000000000000000000000000000000000000000000000000000815260040160405180910390fd5b805f90805190602001906101f39291906101fa565b50506104cb565b828054828255905f5260205f20908101928215610270579160200282015b8281111561026f578251825f6101000a81548173ffffffffffffffffffffffffffffffffffffffff021916908373ffffffffffffffffffffffffffffffffffffffff16021790555091602001919060010190610218565b5b50905061027d9190610281565b5090565b5b80821115610298575f815f905550600101610282565b5090565b5f604051905090565b5f5ffd5b5f5ffd5b5f5ffd5b5f601f19601f8301169050919050565b7f4e487b71000000000000000000000000000000000000000000000000000000005f52604160045260245ffd5b6102f7826102b1565b810181811067ffffffffffffffff82111715610316576103156102c1565b5b80604052505050565b5f61032861029c565b905061033482826102ee565b919050565b5f67ffffffffffffffff821115610353576103526102c1565b5b602082029050602081019050919050565b5f5ffd5b5f73ffffffffffffffffffffffffffffffffffffffff82169050919050565b5f61039182610368565b9050919050565b6103a181610387565b81146103ab575f5ffd5b50565b5f815190506103bc81610398565b92915050565b5f6103d46103cf84610339565b61031f565b905080838252602082019050602084028301858111156103f7576103f6610364565b5b835b81811015610420578061040c88826103ae565b8452602084019350506020810190506103f9565b5050509392505050565b5f82601f83011261043e5761043d6102ad565b5b815161044e8482602086016103c2565b91505092915050565b5f6020828403121561046c5761046b6102a5565b5b5f82015167ffffffffffffffff811115610489576104886102a9565b5b6104958482850161042a565b91505092915050565b7f4e487b71000000000000000000000000000000000000000000000000000000005f52603260045260245ffd5b610e0e806104d85f395ff3fe608060405234801561000f575f5ffd5b5060043610610060575f3560e01c8063019d27291461006457806309c5eabe1461008057806314bfd6d01461009c57806324f6c776146100cc5780638abed32b146100fc578063e9bb84c21461012c575b5f5ffd5b61007e600480360381019061007991906109a9565b610148565b005b61009a600480360381019061009591906109a9565b610157565b005b6100b660048036038101906100b19190610a27565b610486565b6040516100c39190610a91565b60405180910390f35b6100e660048036038101906100e19190610b07565b6104c0565b6040516100f39190610b5f565b60405180910390f35b61011660048036038101906101119190610b78565b6104ea565b6040516101239190610bb2565b60405180910390f35b61014660048036038101906101419190610c06565b6104ff565b005b610153338383610642565b5050565b5f8282604051610168929190610c80565b60405180910390209050600160025f8381526020019081526020015f205410156101be576040517fea8e4eb500000000000000000000000000000000000000000000000000000000815260040160405180910390fd5b6002805f8381526020019081526020015f205410156101e3576101e2338484610642565b5b5f3073ffffffffffffffffffffffffffffffffffffffff16848460405161020b929190610c80565b5f604051808303815f865af19150503d805f8114610244576040519150601f19603f3d011682016040523d82523d5f602084013e610249565b606091505b5050905080610256575f5ffd5b5f60015f8481526020019081526020015f205f5f5f8154811061027c5761027b610c98565b5b905f5260205f20015f9054906101000a900473ffffffffffffffffffffffffffffffffffffffff1673ffffffffffffffffffffffffffffffffffffffff1673ffffffffffffffffffffffffffffffffffffffff1681526020019081526020015f205f6101000a81548160ff0219169083151502179055505f60015f8481526020019081526020015f205f5f60018154811061031a57610319610c98565b5b905f5260205f20015f9054906101000a900473ffffffffffffffffffffffffffffffffffffffff1673ffffffffffffffffffffffffffffffffffffffff1673ffffffffffffffffffffffffffffffffffffffff1681526020019081526020015f205f6101000a81548160ff0219169083151502179055505f60015f8481526020019081526020015f205f5f6002815481106103b8576103b7610c98565b5b905f5260205f20015f9054906101000a900473ffffffffffffffffffffffffffffffffffffffff1673ffffffffffffffffffffffffffffffffffffffff1673ffffffffffffffffffffffffffffffffffffffff1681526020019081526020015f205f6101000a81548160ff0219169083151502179055505f60025f8481526020019081526020015f20819055507f0dcf4ffb3b85ab072df6f9ed79b0382ec6c9619a98f36f4538d3b2e87fd3fd1133858560405161047893929190610d11565b60405180910390a150505050565b5f8181548110610494575f80fd5b905f5260205f20015f915054906101000a900473ffffffffffffffffffffffffffffffffffffffff1681565b6001602052815f5260405f20602052805f5260405f205f915091509054906101000a900460ff1681565b6002602052805f5260405f205f915090505481565b3073ffffffffffffffffffffffffffffffffffffffff163373ffffffffffffffffffffffffffffffffffffffff1614610564576040517fea8e4eb500000000000000000000000000000000000000000000000000000000815260040160405180910390fd5b8047101561059e576040517fd865282a00000000000000000000000000000000000000000000000000000000815260040160405180910390fd5b5f8273ffffffffffffffffffffffffffffffffffffffff16826040516105c390610d64565b5f6040518083038185875af1925050503d805f81146105fd576040519150601f19603f3d011682016040523d82523d5f602084013e610602565b606091505b505090508061063d576040517fbfa871c500000000000000000000000000000000000000000000000000000000815260040160405180910390fd5b505050565b5f5f8154811061065557610654610c98565b5b905f5260205f20015f9054906101000a900473ffffffffffffffffffffffffffffffffffffffff1673ffffffffffffffffffffffffffffffffffffffff168373ffffffffffffffffffffffffffffffffffffffff161415801561071f57505f6001815481106106c7576106c6610c98565b5b905f5260205f20015f9054906101000a900473ffffffffffffffffffffffffffffffffffffffff1673ffffffffffffffffffffffffffffffffffffffff168373ffffffffffffffffffffffffffffffffffffffff1614155b801561079257505f60028154811061073a57610739610c98565b5b905f5260205f20015f9054906101000a900473ffffffffffffffffffffffffffffffffffffffff1673ffffffffffffffffffffffffffffffffffffffff168373ffffffffffffffffffffffffffffffffffffffff1614155b156107c9576040517fea8e4eb500000000000000000000000000000000000000000000000000000000815260040160405180910390fd5b5f82826040516107da929190610c80565b6040518091039020905060015f8281526020019081526020015f205f8573ffffffffffffffffffffffffffffffffffffffff1673ffffffffffffffffffffffffffffffffffffffff1681526020019081526020015f205f9054906101000a900460ff1615610874576040517f101f817a00000000000000000000000000000000000000000000000000000000815260040160405180910390fd5b6001805f8381526020019081526020015f205f8673ffffffffffffffffffffffffffffffffffffffff1673ffffffffffffffffffffffffffffffffffffffff1681526020019081526020015f205f6101000a81548160ff021916908315150217905550600160025f8381526020019081526020015f205f8282546108f89190610da5565b925050819055507fc3d4a09bc3ad9dd4ad0dfdf69ea9916840787e728d223ad89fac54494c48f81b84848460405161093293929190610d11565b60405180910390a150505050565b5f5ffd5b5f5ffd5b5f5ffd5b5f5ffd5b5f5ffd5b5f5f83601f84011261096957610968610948565b5b8235905067ffffffffffffffff8111156109865761098561094c565b5b6020830191508360018202830111156109a2576109a1610950565b5b9250929050565b5f5f602083850312156109bf576109be610940565b5b5f83013567ffffffffffffffff8111156109dc576109db610944565b5b6109e885828601610954565b92509250509250929050565b5f819050919050565b610a06816109f4565b8114610a10575f5ffd5b50565b5f81359050610a21816109fd565b92915050565b5f60208284031215610a3c57610a3b610940565b5b5f610a4984828501610a13565b91505092915050565b5f73ffffffffffffffffffffffffffffffffffffffff82169050919050565b5f610a7b82610a52565b9050919050565b610a8b81610a71565b82525050565b5f602082019050610aa45f830184610a82565b92915050565b5f819050919050565b610abc81610aaa565b8114610ac6575f5ffd5b50565b5f81359050610ad781610ab3565b92915050565b610ae681610a71565b8114610af0575f5ffd5b50565b5f81359050610b0181610add565b92915050565b5f5f60408385031215610b1d57610b1c610940565b5b5f610b2a85828601610ac9565b9250506020610b3b85828601610af3565b9150509250929050565b5f8115159050919050565b610b5981610b45565b82525050565b5f602082019050610b725f830184610b50565b92915050565b5f60208284031215610b8d57610b8c610940565b5b5f610b9a84828501610ac9565b91505092915050565b610bac816109f4565b82525050565b5f602082019050610bc55f830184610ba3565b92915050565b5f610bd582610a52565b9050919050565b610be581610bcb565b8114610bef575f5ffd5b50565b5f81359050610c0081610bdc565b92915050565b5f5f60408385031215610c1c57610c1b610940565b5b5f610c2985828601610bf2565b9250506020610c3a85828601610a13565b9150509250929050565b5f81905092915050565b828183375f83830152505050565b5f610c678385610c44565b9350610c74838584610c4e565b82840190509392505050565b5f610c8c828486610c5c565b91508190509392505050565b7f4e487b71000000000000000000000000000000000000000000000000000000005f52603260045260245ffd5b5f82825260208201905092915050565b5f601f19601f8301169050919050565b5f610cf08385610cc5565b9350610cfd838584610c4e565b610d0683610cd5565b840190509392505050565b5f604082019050610d245f830186610a82565b8181036020830152610d37818486610ce5565b9050949350505050565b50565b5f610d4f5f83610c44565b9150610d5a82610d41565b5f82019050919050565b5f610d6e82610d44565b9150819050919050565b7f4e487b71000000000000000000000000000000000000000000000000000000005f52601160045260245ffd5b5f610daf826109f4565b9150610dba836109f4565b9250828201905080821115610dd257610dd1610d78565b5b9291505056fea2646970667358221220e73bd000b710731330ceba22b3277d1867de5af0efcd3bcbb8c04027335ec4e264736f6c634300081e0033","linkReferences":{}},"methodIdentifiers":{"admins(uint256)":"14bfd6d0","approvalCounts(bytes32)":"8abed32b","approvals(bytes32,address)":"24f6c776","approve(bytes)":"019d2729","execute(bytes)":"09c5eabe","transferEth(address,uint256)":"e9bb84c2"},"id":19}