{"abi":[{"type":"constructor","inputs":[],"stateMutability":"nonpayable"},{"type":"function","name":"approveERC20","inputs":[{"name":"token","type":"address","internalType":"address"},{"name":"spender","type":"address","internalType":"address"},{"name":"amount","type":"uint256","internalType":"uint256"}],"outputs":[],"stateMutability":"nonpayable"},{"type":"function","name":"owner","inputs":[],"outputs":[{"name":"","type":"address","internalType":"address"}],"stateMutability":"view"},{"type":"function","name":"transferERC20","inputs":[{"name":"token","type":"address","internalType":"address"},{"name":"recipient","type":"address","internalType":"address"},{"name":"amount","type":"uint256","internalType":"uint256"}],"outputs":[],"stateMutability":"nonpayable"},{"type":"function","name":"transferEth","inputs":[{"name":"recipient","type":"address","internalType":"address payable"},{"name":"amount","type":"uint256","internalType":"uint256"}],"outputs":[],"stateMutability":"nonpayable"},{"type":"error","name":"FailedTransfer","inputs":[]},{"type":"error","name":"InsuffientBalance","inputs":[]},{"type":"error","name":"NotAuthorized","inputs":[]},{"type":"error","name":"SafeERC20FailedOperation","inputs":[{"name":"token","type":"address","internalType":"address"}]}],"bytecode":{"object":"0x6080604052348015600e575f5ffd5b50335f5f6101000a81548173ffffffffffffffffffffffffffffffffffffffff021916908373ffffffffffffffffffffffffffffffffffffffff1602179055506109298061005b5f395ff3fe608060405234801561000f575f5ffd5b506004361061004a575f3560e01c80638da5cb5b1461004e5780639db5dbe41461006c578063a8e5e4aa14610088578063e9bb84c2146100a4575b5f5ffd5b6100566100c0565b60405161006391906105f8565b60405180910390f35b61008660048036038101906100819190610672565b6100e4565b005b6100a2600480360381019061009d9190610672565b610199565b005b6100be60048036038101906100b991906106fd565b6103a1565b005b5f5f9054906101000a900473ffffffffffffffffffffffffffffffffffffffff1681565b5f5f9054906101000a900473ffffffffffffffffffffffffffffffffffffffff1673ffffffffffffffffffffffffffffffffffffffff163373ffffffffffffffffffffffffffffffffffffffff1614610169576040517fea8e4eb500000000000000000000000000000000000000000000000000000000815260040160405180910390fd5b61019482828573ffffffffffffffffffffffffffffffffffffffff166105049092919063ffffffff16565b505050565b5f5f9054906101000a900473ffffffffffffffffffffffffffffffffffffffff1673ffffffffffffffffffffffffffffffffffffffff163373ffffffffffffffffffffffffffffffffffffffff161461021e576040517fea8e4eb500000000000000000000000000000000000000000000000000000000815260040160405180910390fd5b5f8373ffffffffffffffffffffffffffffffffffffffff1663095ea7b3845f6040518363ffffffff1660e01b815260040161025a92919061077d565b6020604051808303815f875af1158015610276573d5f5f3e3d5ffd5b505050506040513d601f19601f8201168201806040525081019061029a91906107d9565b9050806102dc576040517f08c379a00000000000000000000000000000000000000000000000000000000081526004016102d39061085e565b60405180910390fd5b5f8473ffffffffffffffffffffffffffffffffffffffff1663095ea7b385856040518363ffffffff1660e01b815260040161031892919061088b565b6020604051808303815f875af1158015610334573d5f5f3e3d5ffd5b505050506040513d601f19601f8201168201806040525081019061035891906107d9565b90508061039a576040517f08c379a00000000000000000000000000000000000000000000000000000000081526004016103919061085e565b60405180910390fd5b5050505050565b5f5f9054906101000a900473ffffffffffffffffffffffffffffffffffffffff1673ffffffffffffffffffffffffffffffffffffffff163373ffffffffffffffffffffffffffffffffffffffff1614610426576040517fea8e4eb500000000000000000000000000000000000000000000000000000000815260040160405180910390fd5b80471015610460576040517fd865282a00000000000000000000000000000000000000000000000000000000815260040160405180910390fd5b5f8273ffffffffffffffffffffffffffffffffffffffff1682604051610485906108df565b5f6040518083038185875af1925050503d805f81146104bf576040519150601f19603f3d011682016040523d82523d5f602084013e6104c4565b606091505b50509050806104ff576040517fbfa871c500000000000000000000000000000000000000000000000000000000815260040160405180910390fd5b505050565b6105118383836001610557565b61055257826040517f5274afe700000000000000000000000000000000000000000000000000000000815260040161054991906105f8565b60405180910390fd5b505050565b5f5f63a9059cbb60e01b9050604051815f525f1960601c86166004528460245260205f60445f5f8b5af1925060015f511483166105ab57838315161561059f573d5f823e3d81fd5b5f873b113d1516831692505b806040525050949350505050565b5f73ffffffffffffffffffffffffffffffffffffffff82169050919050565b5f6105e2826105b9565b9050919050565b6105f2816105d8565b82525050565b5f60208201905061060b5f8301846105e9565b92915050565b5f5ffd5b61061e816105d8565b8114610628575f5ffd5b50565b5f8135905061063981610615565b92915050565b5f819050919050565b6106518161063f565b811461065b575f5ffd5b50565b5f8135905061066c81610648565b92915050565b5f5f5f6060848603121561068957610688610611565b5b5f6106968682870161062b565b93505060206106a78682870161062b565b92505060406106b88682870161065e565b9150509250925092565b5f6106cc826105b9565b9050919050565b6106dc816106c2565b81146106e6575f5ffd5b50565b5f813590506106f7816106d3565b92915050565b5f5f6040838503121561071357610712610611565b5b5f610720858286016106e9565b92505060206107318582860161065e565b9150509250929050565b5f819050919050565b5f819050919050565b5f61076761076261075d8461073b565b610744565b61063f565b9050919050565b6107778161074d565b82525050565b5f6040820190506107905f8301856105e9565b61079d602083018461076e565b9392505050565b5f8115159050919050565b6107b8816107a4565b81146107c2575f5ffd5b50565b5f815190506107d3816107af565b92915050565b5f602082840312156107ee576107ed610611565b5b5f6107fb848285016107c5565b91505092915050565b5f82825260208201905092915050565b7f455243323020617070726f76616c206661696c656400000000000000000000005f82015250565b5f610848601583610804565b915061085382610814565b602082019050919050565b5f6020820190508181035f8301526108758161083c565b9050919050565b6108858161063f565b82525050565b5f60408201905061089e5f8301856105e9565b6108ab602083018461087c565b9392505050565b5f81905092915050565b50565b5f6108ca5f836108b2565b91506108d5826108bc565b5f82019050919050565b5f6108e9826108bf565b915081905091905056fea2646970667358221220af0729b0ac295da68d4a1bc6d09744ec903fa60de82cf8e1deac3be69ff40b3d64736f6c634300081e0033","linkReferences":{}},"methodIdentifiers":{"approveERC20(address,address,uint256)":"a8e5e4aa","owner()":"8da5cb5b","transferERC20(address,address,uint256)":"9db5dbe4","transferEth(address,uint256)":"e9bb84c2"},"id":30}