{"abi":[{"type":"constructor","inputs":[],"stateMutability":"nonpayable"},{"type":"function","name":"depositERC20","inputs":[{"name":"asset","type":"address","internalType":"address"},{"name":"amount","type":"uint256","internalType":"uint256"}],"outputs":[],"stateMutability":"nonpayable"},{"type":"function","name":"depositEth","inputs":[],"outputs":[],"stateMutability":"payable"},{"type":"function","name":"withdrawERC20","inputs":[{"name":"asset","type":"address","internalType":"address"},{"name":"amount","type":"uint256","internalType":"uint256"},{"name":"recipient","type":"address","internalType":"address"}],"outputs":[],"stateMutability":"nonpayable"},{"type":"function","name":"withdrawEth","inputs":[{"name":"recipient","type":"address","internalType":"address"}],"outputs":[{"name":"","type":"uint256","internalType":"uint256"}],"stateMutability":"nonpayable"}],"bytecode":{"object":"0x6080604052348015600e575f5ffd5b506102918061001c5f395ff3fe60806040526004361061003e575f3560e01c806325e1606314610042578063439370b11461007e5780635fc3ea0b1461008857806397feb926146100b0575b5f5ffd5b34801561004d575f5ffd5b5061006860048036038101906100639190610147565b6100d8565b604051610075919061018a565b60405180910390f35b6100866100de565b005b348015610093575f5ffd5b506100ae60048036038101906100a991906101cd565b6100e0565b005b3480156100bb575f5ffd5b506100d660048036038101906100d1919061021d565b6100e5565b005b5f919050565b565b505050565b5050565b5f5ffd5b5f73ffffffffffffffffffffffffffffffffffffffff82169050919050565b5f610116826100ed565b9050919050565b6101268161010c565b8114610130575f5ffd5b50565b5f813590506101418161011d565b92915050565b5f6020828403121561015c5761015b6100e9565b5b5f61016984828501610133565b91505092915050565b5f819050919050565b61018481610172565b82525050565b5f60208201905061019d5f83018461017b565b92915050565b6101ac81610172565b81146101b6575f5ffd5b50565b5f813590506101c7816101a3565b92915050565b5f5f5f606084860312156101e4576101e36100e9565b5b5f6101f186828701610133565b9350506020610202868287016101b9565b925050604061021386828701610133565b9150509250925092565b5f5f60408385031215610233576102326100e9565b5b5f61024085828601610133565b9250506020610251858286016101b9565b915050925092905056fea2646970667358221220c531b00169a29775bf86462b58c9de27341367033a6de6355a3c5a133dd940fb64736f6c634300081e0033","linkReferences":{}},"methodIdentifiers":{"depositERC20(address,uint256)":"97feb926","depositEth()":"439370b1","withdrawERC20(address,uint256,address)":"5fc3ea0b","withdrawEth(address)":"25e16063"},"id":32}