{"abi":[{"type":"constructor","inputs":[],"stateMutability":"nonpayable"},{"type":"receive","stateMutability":"payable"},{"type":"function","name":"depositERC20","inputs":[{"name":"asset","type":"address","internalType":"address"},{"name":"amount","type":"uint256","internalType":"uint256"}],"outputs":[],"stateMutability":"nonpayable"},{"type":"function","name":"depositEth","inputs":[],"outputs":[],"stateMutability":"payable"},{"type":"function","name":"withdrawERC20","inputs":[{"name":"asset","type":"address","internalType":"address"},{"name":"amount","type":"uint256","internalType":"uint256"},{"name":"recipient","type":"address","internalType":"address"}],"outputs":[],"stateMutability":"nonpayable"},{"type":"function","name":"withdrawEth","inputs":[{"name":"recipient","type":"address","internalType":"address"}],"outputs":[{"name":"","type":"uint256","internalType":"uint256"}],"stateMutability":"nonpayable"}],"bytecode":{"object":"0x6080604052348015600e575f5ffd5b50335f5f6101000a81548173ffffffffffffffffffffffffffffffffffffffff021916908373ffffffffffffffffffffffffffffffffffffffff160217905550610d5b8061005b5f395ff3fe608060405260043610610042575f3560e01c806325e160631461004d578063439370b1146100895780635fc3ea0b1461009357806397feb926146100bb57610049565b3661004957005b5f5ffd5b348015610058575f5ffd5b50610073600480360381019061006e919061093b565b6100e3565b604051610080919061097e565b60405180910390f35b6100916103d8565b005b34801561009e575f5ffd5b506100b960048036038101906100b491906109c1565b610616565b005b3480156100c6575f5ffd5b506100e160048036038101906100dc9190610a11565b61073b565b005b5f5f5f9054906101000a900473ffffffffffffffffffffffffffffffffffffffff1673ffffffffffffffffffffffffffffffffffffffff163373ffffffffffffffffffffffffffffffffffffffff1614610172576040517f08c379a000000000000000000000000000000000000000000000000000000000815260040161016990610aa9565b60405180910390fd5b5f734d5f47fa6a74757f35c14fd3a6ef8e3c9bc514e890505f8173ffffffffffffffffffffffffffffffffffffffff166370a08231306040518263ffffffff1660e01b81526004016101c49190610ad6565b602060405180830381865afa1580156101df573d5f5f3e3d5ffd5b505050506040513d601f19601f820116820180604052508101906102039190610b03565b90507387870bca3f3fd6335c3f4ce8392d69350b4fa4e273ffffffffffffffffffffffffffffffffffffffff166369328dec73c02aaa39b223fe8d0a0e5c4f27ead9083c756cc283306040518463ffffffff1660e01b815260040161026a93929190610b2e565b6020604051808303815f875af1158015610286573d5f5f3e3d5ffd5b505050506040513d601f19601f820116820180604052508101906102aa9190610b03565b5073c02aaa39b223fe8d0a0e5c4f27ead9083c756cc273ffffffffffffffffffffffffffffffffffffffff16632e1a7d4d826040518263ffffffff1660e01b81526004016102f8919061097e565b5f604051808303815f87803b15801561030f575f5ffd5b505af1158015610321573d5f5f3e3d5ffd5b505050505f8473ffffffffffffffffffffffffffffffffffffffff168260405161034a90610b90565b5f6040518083038185875af1925050503d805f8114610384576040519150601f19603f3d011682016040523d82523d5f602084013e610389565b606091505b50509050806103cd576040517f08c379a00000000000000000000000000000000000000000000000000000000081526004016103c490610bee565b60405180910390fd5b819350505050919050565b5f5f9054906101000a900473ffffffffffffffffffffffffffffffffffffffff1673ffffffffffffffffffffffffffffffffffffffff163373ffffffffffffffffffffffffffffffffffffffff1614610466576040517f08c379a000000000000000000000000000000000000000000000000000000000815260040161045d90610aa9565b60405180910390fd5b5f47905073c02aaa39b223fe8d0a0e5c4f27ead9083c756cc273ffffffffffffffffffffffffffffffffffffffff1663d0e30db0826040518263ffffffff1660e01b81526004015f604051808303818588803b1580156104c4575f5ffd5b505af11580156104d6573d5f5f3e3d5ffd5b505050505073c02aaa39b223fe8d0a0e5c4f27ead9083c756cc273ffffffffffffffffffffffffffffffffffffffff1663095ea7b37387870bca3f3fd6335c3f4ce8392d69350b4fa4e2836040518363ffffffff1660e01b815260040161053e929190610c0c565b6020604051808303815f875af115801561055a573d5f5f3e3d5ffd5b505050506040513d601f19601f8201168201806040525081019061057e9190610c68565b507387870bca3f3fd6335c3f4ce8392d69350b4fa4e273ffffffffffffffffffffffffffffffffffffffff1663617ba03773c02aaa39b223fe8d0a0e5c4f27ead9083c756cc283305f6040518563ffffffff1660e01b81526004016105e69493929190610ce2565b5f604051808303815f87803b1580156105fd575f5ffd5b505af115801561060f573d5f5f3e3d5ffd5b5050505050565b5f5f9054906101000a900473ffffffffffffffffffffffffffffffffffffffff1673ffffffffffffffffffffffffffffffffffffffff163373ffffffffffffffffffffffffffffffffffffffff16146106a4576040517f08c379a000000000000000000000000000000000000000000000000000000000815260040161069b90610aa9565b60405180910390fd5b7387870bca3f3fd6335c3f4ce8392d69350b4fa4e273ffffffffffffffffffffffffffffffffffffffff166369328dec8484846040518463ffffffff1660e01b81526004016106f593929190610b2e565b6020604051808303815f875af1158015610711573d5f5f3e3d5ffd5b505050506040513d601f19601f820116820180604052508101906107359190610b03565b50505050565b5f5f9054906101000a900473ffffffffffffffffffffffffffffffffffffffff1673ffffffffffffffffffffffffffffffffffffffff163373ffffffffffffffffffffffffffffffffffffffff16146107c9576040517f08c379a00000000000000000000000000000000000000000000000000000000081526004016107c090610aa9565b60405180910390fd5b8173ffffffffffffffffffffffffffffffffffffffff1663095ea7b37387870bca3f3fd6335c3f4ce8392d69350b4fa4e2836040518363ffffffff1660e01b8152600401610818929190610c0c565b6020604051808303815f875af1158015610834573d5f5f3e3d5ffd5b505050506040513d601f19601f820116820180604052508101906108589190610c68565b507387870bca3f3fd6335c3f4ce8392d69350b4fa4e273ffffffffffffffffffffffffffffffffffffffff1663617ba0378383305f6040518563ffffffff1660e01b81526004016108ac9493929190610ce2565b5f604051808303815f87803b1580156108c3575f5ffd5b505af11580156108d5573d5f5f3e3d5ffd5b505050505050565b5f5ffd5b5f73ffffffffffffffffffffffffffffffffffffffff82169050919050565b5f61090a826108e1565b9050919050565b61091a81610900565b8114610924575f5ffd5b50565b5f8135905061093581610911565b92915050565b5f602082840312156109505761094f6108dd565b5b5f61095d84828501610927565b91505092915050565b5f819050919050565b61097881610966565b82525050565b5f6020820190506109915f83018461096f565b92915050565b6109a081610966565b81146109aa575f5ffd5b50565b5f813590506109bb81610997565b92915050565b5f5f5f606084860312156109d8576109d76108dd565b5b5f6109e586828701610927565b93505060206109f6868287016109ad565b9250506040610a0786828701610927565b9150509250925092565b5f5f60408385031215610a2757610a266108dd565b5b5f610a3485828601610927565b9250506020610a45858286016109ad565b9150509250929050565b5f82825260208201905092915050565b7f4e6f74206f776e657200000000000000000000000000000000000000000000005f82015250565b5f610a93600983610a4f565b9150610a9e82610a5f565b602082019050919050565b5f6020820190508181035f830152610ac081610a87565b9050919050565b610ad081610900565b82525050565b5f602082019050610ae95f830184610ac7565b92915050565b5f81519050610afd81610997565b92915050565b5f60208284031215610b1857610b176108dd565b5b5f610b2584828501610aef565b91505092915050565b5f606082019050610b415f830186610ac7565b610b4e602083018561096f565b610b5b6040830184610ac7565b949350505050565b5f81905092915050565b50565b5f610b7b5f83610b63565b9150610b8682610b6d565b5f82019050919050565b5f610b9a82610b70565b9150819050919050565b7f455448207472616e73666572206661696c6564000000000000000000000000005f82015250565b5f610bd8601383610a4f565b9150610be382610ba4565b602082019050919050565b5f6020820190508181035f830152610c0581610bcc565b9050919050565b5f604082019050610c1f5f830185610ac7565b610c2c602083018461096f565b9392505050565b5f8115159050919050565b610c4781610c33565b8114610c51575f5ffd5b50565b5f81519050610c6281610c3e565b92915050565b5f60208284031215610c7d57610c7c6108dd565b5b5f610c8a84828501610c54565b91505092915050565b5f819050919050565b5f61ffff82169050919050565b5f819050919050565b5f610ccc610cc7610cc284610c93565b610ca9565b610c9c565b9050919050565b610cdc81610cb2565b82525050565b5f608082019050610cf55f830187610ac7565b610d02602083018661096f565b610d0f6040830185610ac7565b610d1c6060830184610cd3565b9594505050505056fea26469706673582212200fc7b502587559c783b8776157a1043537b0517d4302f75174d71b898488688164736f6c634300081e0033","linkReferences":{}},"methodIdentifiers":{"depositERC20(address,uint256)":"97feb926","depositEth()":"439370b1","withdrawERC20(address,uint256,address)":"5fc3ea0b","withdrawEth(address)":"25e16063"},"id":21}